:020000040800F2
:1000000000000120459600088B9600083D960008E8
:100010008F96000891960008939600080000000053
:10002000000000000000000000000000959600089D
:10003000979600080000000099960008A99500080E
:100040009F960008A1960008A3960008A5960008B0
:10005000A7960008A9960008AB960008AD96000880
:10006000AF960008B1960008B3960008B596000850
:10007000B7960008B9960008BB960008BD96000820
:10008000BF960008C1960008C3960008C5960008F0
:10009000C7960008C9960008CB960008CD960008C0
:1000A000CF960008D1960008D3960008D596000890
:1000B000D7960008D9960008DB960008DD96000860
:1000C000DF960008E1960008E3960008E596000830
:1000D000E79600084D9C0008EB960008ED96000896
:1000E000EF960008F1960008F3960008F5960008D0
:1000F000F7960008F9960008FB960008FD960008A0
:10010000FF960008D58200080397000805970008AD
:1001100007970008099700080B970008312400088A
:100120000F9700081197000813970008E182000854
:1001300017970008199700081B9700081D970008DB
:100140001F970008219700082397000825970008AB
:1001500027970008299700082B97000801870008B7
:100160002F9700083197000833970008359700084B
:1001700037970008399700083B9700083D9700081B
:100180003F97000810B5054C237833B9044B13B1E1
:100190000448AFF300800123237010BD50010020FC
:1001A00000000000F8B0000808B5064B1BB1064877
:1001B0000649AFF300800648036813B1054B03B14D
:1001C000984708BD00000000F8B000085401002066
:1001D0005001002000000000154B002B08BF134BFE
:1001E0009D46A3F5803A00218B460F461348144ADA
:1001F000121A09F0BDFD0F4B002B00D098470E4B93
:10020000002B00D098470020002104000D000D486D
:10021000002802D00C48AFF3008009F083FD2000D5
:10022000290008F013FE09F069FD00BF0000080076
:10023000000001200000000000000000500100202C
:100240005C070020000000000000000080B483B0C4
:1002500000AF78604FF46D43CEF200037A6842F04D
:10026000BF6242F40032DA6007F10C07BD4680BC81
:10027000704700BF80B485B000AF78604FF00003D6
:10028000FB734FF00003BB734FF00F037B737B686E
:10029000DB78002B45D04FF46D43CEF20003DB68D2
:1002A0006FEA030303F4E0634FEA1323FB73FB7B62
:1002B000C3F10403BB737A7BFB7B42FA03F37B73CA
:1002C0007B685B781A46BB7B02FA03F3FB737B689F
:1002D0009A787B7B1340DAB2FB7B1343FB73FB7B87
:1002E0004FEA0313FB734FF46143CEF200037A68C5
:1002F00012789B18FA7B83F800234FF46143CEF207
:1003000000037A6812784FEA5212D2B279680978FB
:1003100001F01F014FF0010000FA01F143F8221033
:1003200014E04FF46143CEF200037A6812784FEA8A
:100330005212D2B27968097801F01F014FF0010022
:1003400000FA01F102F1200243F8221007F114072C
:10035000BD4680BC704700BF80B485B000AF7860F8
:1003600039604FF00003FB604FF00003FB727B68C5
:100370005B68FB60FB6823F0407323F48073FB60D1
:100380003B681B794FEA03223B681B681343FA68FA
:100390001343FB607B68FA685A607B689B68FB606C
:1003A000FA684FF2FD73CCF2FF031340FB603B6829
:1003B0001A693B68DB681A433B689B681A433B68D1
:1003C0005B794FEA43031343FA681343FB607B688E
:1003D000FA689A607B68DB6AFB60FB6823F4700351
:1003E000FB603B681B7D03F1FF33DAB2FB7A1343FA
:1003F000FB72FB7A4FEA0353FA681343FB607B6896
:10040000FA68DA6207F11407BD4680BC704700BF86
:1004100080B483B000AF78607B684FF000021A6050
:100420007B684FF000021A717B684FF000025A712E
:100430007B684FF000029A607B684FF00002DA6040
:100440007B684FF000021A617B684FF001021A7559
:1004500007F10C07BD4680BC704700BF80B485B073
:1004600000AF78604FF00003FB604FF40C53C4F210
:1004700001035B68FB60FA6843F2E003CFF6FC73AC
:100480001340FB607B681A687B685B681A437B6873
:100490009B681A437B68DB681343FA681343FB606D
:1004A0004FF40C53C4F20103FA685A6007F11407C1
:1004B000BD4680BC704700BF80B483B000AF786099
:1004C0000B46FB70FB78002B06D07B689B6843F0E3
:1004D00001027B689A6005E07B689B6823F001025B
:1004E0007B689A6007F10C07BD4680BC704700BF6F
:1004F00080B485B000AF7860F970BA707B704FF04F
:100500000003FB604FF00003BB60FB78092B27D989
:100510007B68DB68FB60FA7813464FEA43039B185D
:10052000A3F11E034FF0070202FA03F3BB60BB689E
:100530006FEA0303FA681340FB607978FA78134690
:100540004FEA43039B18A3F11E0301FA03F3BB60B8
:10055000FA68BB681343FB607B68FA68DA6022E0E4
:100560007B681B69FB60FA7813464FEA43039B18CC
:100570004FF0070202FA03F3BB60BB686FEA0303A4
:10058000FA681340FB607978FA7813464FEA430320
:100590009B1801FA03F3BB60FA68BB681343FB6066
:1005A0007B68FA681A61BB78062B27D87B685B6B7F
:1005B000FB60BB7803F1FF3213464FEA83039B18BD
:1005C0004FF01F0202FA03F3BB60BB686FEA03033C
:1005D000FA681340FB60F978BB7803F1FF321346E9
:1005E0004FEA83039B1801FA03F3BB60FA68BB6808
:1005F0001343FB607B68FA685A6351E0BB780C2BAD
:1006000027D87B681B6BFB60BA7813464FEA8303DD
:100610009B18A3F123034FF01F0202FA03F3BB6000
:10062000BB686FEA0303FA681340FB60F978BA7895
:1006300013464FEA83039B18A3F1230301FA03F344
:10064000BB60FA68BB681343FB607B68FA681A6397
:1006500026E07B68DB6AFB60BA7813464FEA8303C7
:100660009B18A3F141034FF01F0202FA03F3BB6092
:10067000BB686FEA0303FA681340FB60F978BA7845
:1006800013464FEA83039B18A3F1410301FA03F3D6
:10069000BB60FA68BB681343FB607B68FA68DA6288
:1006A00007F11407BD4680BC704700BF80B483B01B
:1006B00000AF78607B689B6843F080427B689A60FB
:1006C00007F10C07BD4680BC704700BF80B483B003
:1006D00000AF78607B68DB6C9BB2184607F10C07B3
:1006E000BD4680BC704700BF80B485B000AF786065
:1006F0000B46FB704FF00003FB737B681A68FB78B6
:100700001340002B03D04FF00103FB7302E04FF0C6
:100710000003FB73FB7B184607F11407BD4680BC42
:10072000704700BF80B485B000AF786039604FF08B
:100730000003FB604FF00003BB604FF4E843C4F2DA
:1007400000031B68FB607B6840F6FE7202FA03F34D
:100750006FEA0303FA681340FB603B681A683B6862
:100760005B681A433B689B681A433B68DB6813432A
:10077000BB607B68BA6802FA03F3FA681343FB6054
:100780004FF4E843C4F20003FA681A6007F1140753
:10079000BD4680BC704700BF80B483B000AF7860B6
:1007A0000B46FB70FB78002B10D04FF4E843C4F2EB
:1007B00000034FF4E842C4F2000211687A684FF077
:1007C000010000FA02F20A431A6011E04FF4E84314
:1007D000C4F200034FF4E842C4F2000211687A68E0
:1007E0004FF0010000FA02F26FEA02020A401A60BA
:1007F00007F10C07BD4680BC704700BF80B483B0D2
:1008000000AF78600B46FB70FB78002B10D04FF4E4
:10081000E843C4F200034FF4E842C4F20002116856
:100820007A684FF4805000FA02F20A431A6011E02D
:100830004FF4E843C4F200034FF4E842C4F200026C
:1008400011687A684FF4805000FA02F26FEA0202EF
:100850000A401A6007F10C07BD4680BC704700BF14
:1008600080B483B000AF78607B681B6823F001021E
:100870007B681A607B684FF000021A607B684FF05B
:1008800000025A607B684FF000029A607B684FF06C
:100890000002DA607B684FF000021A617B684FF05B
:1008A00021025A617A6846F21003C4F202039A42A6
:1008B00007D14FF4C043C4F202034FF03D029A60E7
:1008C000EBE07A6846F22803C4F202039A4207D1A9
:1008D0004FF4C043C4F202034FF474629A60DCE048
:1008E0007A6846F24003C4F202039A4207D14FF4F9
:1008F000C043C4F202034FF474129A60CDE07A68E8
:1009000046F25803C4F202039A4207D14FF4C0439F
:10091000C4F202034FF074629A60BEE07A6846F255
:100920007003C4F202039A4209D14FF4C043C4F2E7
:1009300002034FF03D02C2F20002DA60ADE07A68D5
:1009400046F28803C4F202039A4209D14FF4C0432D
:10095000C4F202034FF47462C2F20002DA609CE057
:100960007A6846F2A003C4F202039A4209D14FF416
:10097000C043C4F202034FF00002C2F23D02DA604B
:100980008BE07A6846F2B803C4F202039A4207D1B8
:100990004FF4C043C4F202034FF03D52DA607CE0F2
:1009A0007A6846F21043C4F202039A4207D14FF428
:1009B000C843C4F202034FF03D029A606DE07A68CA
:1009C00046F22843C4F202039A4207D14FF4C843C7
:1009D000C4F202034FF474629A605EE07A6846F2F1
:1009E0004043C4F202039A4207D14FF4C843C4F211
:1009F00002034FF474129A604FE07A6846F258434B
:100A0000C4F202039A4207D14FF4C843C4F202036E
:100A10004FF074629A6040E07A6846F27043C4F224
:100A200002039A4209D14FF4C843C4F202034FF0C3
:100A30003D02C2F20002DA602FE07A6846F2884393
:100A4000C4F202039A4209D14FF4C843C4F202032C
:100A50004FF47462C2F20002DA601EE07A6846F275
:100A6000A043C4F202039A4209D14FF4C843C4F22E
:100A700002034FF00002C2F23D02DA600DE07A6834
:100A800046F2B843C4F202039A4206D14FF4C84377
:100A9000C4F202034FF03D52DA6007F10C07BD4685
:100AA00080BC704780B485B000AF786039604FF08B
:100AB0000003FB607B681B68FB60FA6848F23F0339
:100AC000CFF21C031340FB603B681A683B68DB688D
:100AD0001A433B685B691A433B689B691A433B684E
:100AE000DB691A433B681B6A1A433B685B6A1A431B
:100AF0003B689B6A1A433B685B6B1A433B689B6B82
:100B00001343FA681343FB607B68FA681A607B68DA
:100B10005B69FB60FB6823F00703FB603B68DA6AF4
:100B20003B681B6B1343FA681343FB607B68FA68EE
:100B30005A613B681A697B685A603B685A687B68EF
:100B40009A603B689A687B68DA6007F11407BD46D3
:100B500080BC704780B483B000AF78600B46FB70F8
:100B6000FB78002B06D07B681B6843F001027B6892
:100B70001A6005E07B681B6823F001027B681A603D
:100B800007F10C07BD4680BC704700BF80B483B03E
:100B900000AF786039603B68002B06D07B681B682B
:100BA00043F020027B681A6005E07B681B6823F035
:100BB00020027B681A6007F10C07BD4680BC7047B5
:100BC00080B485B000AF786039607A6846F20F4330
:100BD000C4F202039A4205D84FF4C043C4F20203A0
:100BE000FB6004E04FF4C843C4F20203FB603B68BF
:100BF00003F00053002B07D03B6823F0F02323F0D1
:100C00008213FA68D36006E03B6823F0F02323F0F8
:100C10008213FA68936007F11407BD4680BC7047E1
:100C200080B485B000AFF860B9601346FB71BB6853
:100C300003F08003002B0FD0FB79002B06D0FB685C
:100C40005B6943F08002FB685A6105E0FB685B6901
:100C500023F08002FB685A61BB68802B15D0FB79BA
:100C6000002B08D0FB681A68BB6803F01E031A4308
:100C7000FB681A6009E0FB681A68BB6803F01E0392
:100C80006FEA03031A40FB681A6007F11407BD46B8
:100C900080BC704780B487B000AF786039604FF097
:100CA00000037B614FF000033B614FF00003FB60EA
:100CB0004FF000037B6186E07B694FF0010202FA8E
:100CC00003F33B613B681A683B691340FB60FA68B9
:100CD0003B699A4273D17B681A687B694FEA430388
:100CE0004FF0030101FA03F36FEA03031A407B6834
:100CF0001A607B681A683B681B7919467B694FEA62
:100D0000430301FA03F31A437B681A603B681B79BB
:100D1000012B03D03B681B79022B34D17B689A6886
:100D20007B694FEA43034FF0030101FA03F36FEAD3
:100D300003031A407B689A607B689A683B685B791A
:100D400019467B694FEA430301FA03F31A437B68B0
:100D50009A607B685A687B699BB24FF0010101FA87
:100D600003F36FEA03031A407B685A607B685A6892
:100D70003B689B7919467B699BB201FA03F39BB2EE
:100D80001A437B685A607B68DA687B699BB24FEADA
:100D900043034FF0030101FA03F36FEA03031A4020
:100DA0007B68DA607B68DA683B68DB7919467B69C7
:100DB0004FEA430301FA03F31A437B68DA607B6965
:100DC00003F101037B617B690F2B7FF675AF07F1A0
:100DD0001C07BD4680BC704780B485B000AF78600A
:100DE0000B467B804FF00003FB737B681A697B889E
:100DF0001340002B03D04FF00103FB7302E04FF0D0
:100E00000003FB73FB7B184607F11407BD4680BC4B
:100E1000704700BF80B483B000AF78600B467B8022
:100E20007B687A881A8307F10C07BD4680BC70473F
:100E300080B483B000AF78600B467B807B687A8893
:100E40005A8307F10C07BD4680BC704780B485B05B
:100E500000AF786013460A467A807B704FF000033B
:100E6000FB604FF00003BB607A787B8803F00703D8
:100E70004FEA830302FA03F3FB607B884FEAD30354
:100E80009BB21A467B884FEAD3039BB219467B6814
:100E900001F1080153F821107B8803F007034FEAA2
:100EA00083034FF00F0000FA03F36FEA03031940C6
:100EB0007B6802F1080243F822107B884FEAD303D3
:100EC0009BB21A467B6802F1080253F82220FB68A5
:100ED0001343BB607B884FEAD3039BB21A467B68FF
:100EE00002F10802B96843F8221007F11407BD4661
:100EF00080BC704780B582B000AF78607A684FF4EC
:100F0000A843C4F200039A420CD14FF400104FF0F2
:100F1000010100F0ADFB4FF400104FF0000100F0B4
:100F2000A7FB26E07A684FF4B043C4F200039A426C
:100F30000CD14FF480004FF0010100F099FB4FF409
:100F400080004FF0000100F093FB12E07A684FF44C
:100F5000B843C4F200039A420BD14FF400004FF0A3
:100F6000010100F085FB4FF400004FF0000100F09C
:100F70007FFB07F10807BD4680BD00BF80B58AB082
:100F800000AF786039604FF00003FB844FF000033E
:100F90007B844FF00403BB844FF49053C0F27A0378
:100FA000FB617B689B88FB84FB8C23F03F03FB8405
:100FB00007F10C03184600F0F7F97B69FB61FA6949
:100FC0004DF68363C4F21B33A3FB02134FEA934332
:100FD0007B84FA8C7B8C1343FB847B68FA8C9A802D
:100FE0007B681B889BB223F001039AB27B681A804E
:100FF0004FF00003FB843B681A6848F2A063C0F21C
:1010000001039A4218D83B681B684FEA4303FA6908
:10101000B2FBF3F3BB84BB8C032B02D84FF0040369
:10102000BB84FA8CBB8C1343FB847B8C03F10103E0
:101030009AB27B681A844BE03B68DA884BF6FF7300
:101040009A420AD13B681A6813464FEA43039B1839
:10105000FA69B2FBF3F3BB8410E03B681A681346ED
:101060004FEA83039B184FEA83029B18FA69B2FB8D
:10107000F3F3BB84BB8C43F48043BB84BB8C4FEA4B
:1010800003534FEA1353002B03D1BB8C43F00103EE
:10109000BB84BA8CFB8C13439BB26FEA43436FEA69
:1010A0005343FB847B8C4FF4967202FB03F244F6AD
:1010B000D353C1F2620383FB02134FEAA3114FEA39
:1010C000E273CB1A9BB203F101039AB27B681A84D4
:1010D0007B68FA8C9A837B681B889BB243F0010380
:1010E0009AB27B681A807B681B88FB84FB8C23F494
:1010F000816323F00203FB843B689A883B685B8929
:1011000013439AB2FB8C1343FB847B68FA8C1A80DE
:101110003B689A893B681B8913439AB27B681A81A2
:1011200007F12807BD4680BD80B483B000AF78606A
:101130000B46FB70FB78002B08D07B681B889BB2AA
:1011400043F001039AB27B681A8007E07B681B8832
:101150009BB223F001039AB27B681A8007F10C0757
:10116000BD4680BC704700BF80B483B000AF7860DC
:101170000B46FB70FB78002B08D07B681B889BB26A
:1011800043F480739AB27B681A8007E07B681B88FF
:101190009BB223F480739AB27B681A8007F10C0724
:1011A000BD4680BC704700BF80B483B000AF78609C
:1011B0000B46FB70FB78002B08D07B681B889BB22A
:1011C00043F400739AB27B681A8007E07B681B883F
:1011D0009BB223F400739AB27B681A8007F10C0764
:1011E000BD4680BC704700BF80B483B000AF78605C
:1011F00013460A46FA70BB70BB78002B04D0FB780C
:1012000043F00103FB7003E0FB7823F00103FB7064
:10121000FB789AB27B681A8207F10C07BD4680BC46
:10122000704700BF80B483B000AF78600B46FB709E
:10123000FB78002B08D07B681B889BB243F480634B
:101240009AB27B681A8007E07B681B889BB223F404
:1012500080639AB27B681A8007F10C07BD4680BC98
:10126000704700BF80B483B000AF78600B46FB705E
:10127000FB789AB27B681A8207F10C07BD4680BCE6
:10128000704700BF80B483B000AF78607B681B8A72
:101290009BB2DBB2184607F10C07BD4680BC704715
:1012A00080B487B000AF786039604FF00003FB7501
:1012B0004FF000033B614FF00003FB607B68FB6075
:1012C0003B684FEA13733B613B6823F07F433B600D
:1012D0003B69002B04D0FB6803F11403FB6007E0BB
:1012E0003B684FEA13433B60FB6803F11803FB6064
:1012F000FB681A683B681340002B03D04FF00103D2
:10130000FB7502E04FF00003FB75FB7D184607F10B
:101310001C07BD4680BC704780B483B000AF034655
:10132000FB804FF44053C4F20003FA881A6007F1BF
:101330000C07BD4680BC704780B483B000AF034645
:10134000FB714FF44053C4F20003FA795A6007F17D
:101350000C07BD4680BC704780B483B000AF034625
:10136000FB804FF44053C4F20003FA889A6007F1FF
:101370000C07BD4680BC704780B400AF4FF44053AB
:10138000C4F200034AF6AA221A60BD4680BC704728
:1013900080B400AF4FF44053C4F200034CF6CC428B
:1013A0001A60BD4680BC704780B489B000AF7860D9
:1013B0004FF00003BB614FF000037B614FF000036F
:1013C000FB614FF002033B614FF00003FB604FF005
:1013D0000203BB604FF46053C4F202039B6803F046
:1013E0000C03BB61BB69042B0AD0082B0FD0002B68
:1013F00060D17A684FF41053C0F2F403136060E0D8
:101400007A684FF49053C0F27A03136059E04FF4B6
:101410006053C4F202035B6803F480034FEA935302
:10142000FB604FF46053C4F202035B6803F03F03B8
:10143000BB60FB68002B14D04FF49053C0F27A03CA
:10144000BA68B3FBF2F24FF46053C4F20203596876
:1014500047F6C0730B404FEA931303FB02F3FB61A3
:1014600013E04FF41053C0F2F403BA68B3FBF2F286
:101470004FF46053C4F20203596847F6C0730B403F
:101480004FEA931303FB02F3FB614FF46053C4F282
:1014900002035B6803F440334FEA134303F1010393
:1014A0004FEA43033B61FA693B69B2FBF3F27B68A5
:1014B0001A6006E07A684FF41053C0F2F403136028
:1014C00000BF4FF46053C4F202039B6803F0F003C3
:1014D000BB61BB694FEA1313BB6140F20003C2F268
:1014E0000003BA699B181B78DBB27B617B681A68C2
:1014F0007B6922FA03F27B685A604FF46053C4F2AE
:1015000002039B6803F4E053BB61BB694FEA93237A
:10151000BB6140F20003C2F20003BA699B181B785A
:10152000DBB27B617B685A687B6922FA03F27B68D5
:101530009A604FF46053C4F202039B6803F4604363
:10154000BB61BB694FEA5333BB6140F20003C2F297
:101550000003BA699B181B78DBB27B617B685A6811
:101560007B6922FA03F27B68DA6007F12407BD4643
:1015700080BC704780B483B000AF78600B46FB70CE
:10158000FB78002B0CD04FF46053C4F202034FF4ED
:101590006052C4F20202116B7A680A431A630DE0CA
:1015A0004FF46053C4F202034FF46052C4F20202DB
:1015B000116B7A686FEA02020A401A6307F10C079E
:1015C000BD4680BC704700BF80B483B000AF786078
:1015D0000B46FB70FB78002B0CD04FF46053C4F229
:1015E00002034FF46052C4F20202116C7A680A439B
:1015F0001A640DE04FF46053C4F202034FF46052DA
:10160000C4F20202116C7A686FEA02020A401A649C
:1016100007F10C07BD4680BC704700BF80B483B0A3
:1016200000AF78600B46FB70FB78002B0CD04FF4BA
:101630006053C4F202034FF46052C4F20202516CD0
:101640007A680A435A640DE04FF46053C4F202030F
:101650004FF46052C4F20202516C7A686FEA0202DF
:101660000A405A6407F10C07BD4680BC704700BFB2
:1016700080B483B000AF78600B46FB70FB78002B22
:101680000CD04FF46053C4F202034FF46052C4F222
:101690000202116A7A680A431A620DE04FF460533D
:1016A000C4F202034FF46052C4F20202116A7A6873
:1016B0006FEA02020A401A6207F10C07BD4680BCBD
:1016C000704700BF80B483B000AF78600B46FB70FA
:1016D000FB78002B0CD04FF46053C4F202034FF49C
:1016E0006052C4F20202516A7A680A435A620DE0FB
:1016F0004FF46053C4F202034FF46052C4F202028A
:10170000516A7A686FEA02020A405A6207F10C07CE
:10171000BD4680BC704700BF80B487B000AF0346B1
:10172000FB714FF00003FB604FF000037B614FF053
:101730000003FB74FB794FEA5313DBB2FB60FB68D9
:10174000012B06D14FF46053C4F202031B687B6186
:101750000FE0FB68022B06D14FF46053C4F2020382
:101760001B6F7B6105E04FF46053C4F202035B6FB3
:101770007B61FB7903F01F03FB60FB687A6922FA47
:1017800003F303F00103002B03D04FF00103FB74BC
:1017900002E04FF00003FB74FB7C184607F11C07C6
:1017A000BD4680BC704700BF80B400AF4FF46053AB
:1017B000C4F202034FF46052C4F20202526F42F0CC
:1017C00080725A67BD4680BC704700BF80B500AFCD
:1017D0004FF400604FF00101FFF774FF4FF4006019
:1017E0004FF00001FFF76EFF80BD00BF80B485B0F1
:1017F00000AF78604FF00003FB604FF43053C4F249
:1018000001035B68FB60FB6823F4FD4323F07F0367
:10181000FB607B681B7D1A467B689B681A437B686C
:101820005B681A437B68DB681A437B681B681A4352
:101830007B681B691343FA681343FB604FF4305312
:10184000C4F20103FA685A6007F11407BD4680BC70
:10185000704700BF80B483B000AF0346FB7148F20D
:10186000A003C4F22523FA791A6007F10C07BD46DC
:1018700080BC704780B483B000AF78604FF43053C1
:10188000C4F201037A681A6007F10C07BD4680BCF8
:10189000704700BF80B400AF4FF43053C4F201036F
:1018A0001B6803F003031846BD4680BC704700BFA9
:1018B00080B485B000AF78604FF00003FB604FF458
:1018C0003053C4F201037A6812689A604FF43053BF
:1018D000C4F20103DB68FB60FB6823F4FF6323F0C1
:1018E0000703FB607B685A687B689B681A437B68C8
:1018F000DB681A437B681B691343FA681343FB6078
:101900004FF43053C4F20103FA68DA6007F11407A8
:10191000BD4680BC704700BF80B400AF4FF4305369
:10192000C4F201031B69DBB21846BD4680BC704798
:1019300080B485B000AF78604FF00003FB607A6838
:1019400042F61443C4F20103D318FB60FB681B6822
:10195000184607F11407BD4680BC704780B485B0B7
:1019600000AF78604FF00003FB604FF43053C4F2D7
:1019700001037A6812685A624FF43053C4F20103CB
:101980007A6852689A624FF43053C4F20103DB6AFA
:10199000FB60FB6823F0F703FB607B689A687B6859
:1019A000DB681A437B681B691A437B685B691343D6
:1019B000FA681343FB604FF43053C4F20103FA6832
:1019C000DA6207F11407BD4680BC704780B400AFEF
:1019D0004FF43053C4F20103D3F880301846BD46AB
:1019E00080BC704780B483B000AF0346FB7148F2FF
:1019F0008C53C4F22523FA791A6007F10C07BD460F
:101A000080BC704780B483B000AF78600B46FB7039
:101A1000FB78002B0CD04FF43053C4F201034FF489
:101A20003052C4F20102D16B7A680A43DA630DE0E6
:101A30004FF43053C4F201034FF43052C4F20102A8
:101A4000D16B7A686FEA02020A40DA6307F10C0789
:101A5000BD4680BC704700BF80B485B000AF7860E1
:101A60004FF00003FB734FF43053C4F201035A6B81
:101A70007B681340002B03D04FF00103FB7302E09F
:101A80004FF00003FB73FB7B184607F11407BD46BC
:101A900080BC704780B483B000AF78604FF430539F
:101AA000C4F201037A689A6307F10C07BD4680BC53
:101AB000704700BF80B485B000AF78604FF000037E
:101AC000FB734FF43053C4F201035A6B7B6813402D
:101AD000002B03D04FF00103FB7302E04FF0000333
:101AE000FB73FB7B184607F11407BD4680BC7047AB
:101AF00080B483B000AF78604FF43053C4F2010378
:101B00007A689A6307F10C07BD4680BC704700BF36
:101B100080B485B000AF786039604FF00003FB817E
:101B20007B681B88FB817A684FF00003C4F20103D5
:101B30009A421FD07A684FF48063C4F201039A423C
:101B400018D07B68B3F1804F14D07A684FF480636B
:101B5000C4F200039A420DD07A684FF40063C4F2D5
:101B600000039A4206D07A684FF44063C4F200033F
:101B70009A4208D1FB8923F07003FB813B685A88A5
:101B8000FB891343FB817A684FF48053C4F200034E
:101B90009A420FD07A684FF4A053C4F200039A42DD
:101BA00008D0FB8923F44073FB813B681A89FB89C9
:101BB0001343FB817B68FA891A803B685A687B680B
:101BC000DA623B681A887B681A857A684FF00003EE
:101BD000C4F201039A4206D07A684FF48063C4F2DB
:101BE00001039A4204D13B689B7A1A467B681A86A5
:101BF0007B684FF001029A8207F11407BD4680BC52
:101C0000704700BF80B483B000AF78607B684FF04E
:101C1000FF325A607B684FF000021A807B684FF0F9
:101C200000021A817B684FF000025A807B684FF0F7
:101C300000029A7207F10C07BD4680BC704700BFD6
:101C400080B483B000AF786039607B683A68DA624C
:101C500007F10C07BD4680BC704700BF80B483B05D
:101C600000AF78600B46FB70FB78002B08D07B68D8
:101C70001B889BB243F080039AB27B681A8007E00E
:101C80007B681B889BB223F080039AB27B681A8022
:101C900007F10C07BD4680BC704700BF80B483B01D
:101CA00000AF78600B46FB70FB78002B08D07B6898
:101CB0001B889BB243F001039AB27B681A8007E04D
:101CC0007B681B889BB223F001039AB27B681A8061
:101CD00007F10C07BD4680BC704700BF80B483B0DD
:101CE00000AF786013460A467A807B707B78002BC1
:101CF00008D07B689B899AB27B8813439AB27B6831
:101D00009A810AE07B689B899AB27B886FEA030319
:101D10009BB213409AB27B689A8107F10C07BD46CB
:101D200080BC704780B485B000AF78600B467B8084
:101D30004FF00003FB734FF00003BB814FF0000333
:101D40007B817B681B8A9AB27B881340BB817B684E
:101D50009B899AB27B8813407B81BB89002B06D07C
:101D60007B89002B03D04FF00103FB7302E04FF09F
:101D70000003FB73FB7B184607F11407BD4680BCCC
:101D8000704700BF80B483B000AF78600B467B80A3
:101D90007B886FEA03039AB27B681A8207F10C070B
:101DA000BD4680BC704700BF80B483B000AF786090
:101DB0000B467B807B689B889BB223F070039AB2B2
:101DC0007B689A807B689B889AB27B8813439AB21F
:101DD0007B689A8007F10C07BD4680BC704700BF46
:101DE00080B58AB000AF786039604FF000037B6245
:101DF0004FF000033B624FF00003FB614FF0000324
:101E0000BB617B681B8A9BB27B627B6A23F4405375
:101E10007B623B68DB887A6A13437B627B6A9AB297
:101E20007B681A827B689B899BB27B627B6A23F406
:101E3000B05323F00C037B623B689A883B681B8994
:101E400013439AB23B685B8913439BB27A6A13438C
:101E50007B627B6A9AB27B689A817B689B8A9BB221
:101E60007B627B6A23F440737B623B689B897A6A5E
:101E700013437B627B6A9AB27B689A8207F10803FC
:101E80001846FFF791FA7A684FF48053C4F20103C1
:101E90009A4206D07A684FF4A053C4F201039A42E2
:101EA00002D17B693B6201E03B693B627B689B89B5
:101EB0009BB29BB21BB2002B0FDA3A6A13464FEA71
:101EC00083039B184FEA83029A183B681B684FEA0A
:101ED0004303B2FBF3F3FB610EE03A6A13464FEAA9
:101EE00083039B184FEA83029A183B681B684FEAEA
:101EF0008303B2FBF3F3FB61FA6948F21F53C5F2A7
:101F0000EB13A3FB02134FEA53134FEA03137B6255
:101F10007B6A4FEA13134FF0640202FB03F3FA6982
:101F2000D31ABB617B689B899BB29BB21BB2002B0F
:101F300012DABB694FEAC30303F1320248F21F53BE
:101F4000C5F2EB13A3FB02134FEA531303F007038D
:101F50007A6A13437B6211E0BB694FEA031303F112
:101F6000320248F21F53C5F2EB13A3FB02134FEAF0
:101F7000531303F00F037A6A13437B627B6A9AB2AE
:101F80007B681A8107F12807BD4680BD80B483B005
:101F900000AF78600B46FB70FB78002B08D07B68A5
:101FA0009B899BB243F400539AB27B689A8107E005
:101FB0007B689B899BB223F400539AB27B689A8119
:101FC00007F10C07BD4680BC704700BF80B483B0EA
:101FD00000AF78600B467B807B884FEAC3534FEAA3
:101FE000D3539AB27B689A8007F10C07BD4680BC38
:101FF000704700BF80B483B000AF78607B689B8877
:102000009BB24FEAC3534FEAD3539BB2184607F132
:102010000C07BD4680BC704780B487B000AF7860C5
:1020200013460A467A807B704FF000033B614FF005
:102030000003FB604FF00003BB604FF000037B61C7
:102040007B687B617B88DBB24FEA5313DBB23B6179
:102050007B8803F01F03FB60FB684FF0010202FA6C
:1020600003F3BB603B69012B04D17B6903F10C03D3
:102070007B610BE03B69022B04D17B6903F1100308
:102080007B6103E07B6903F114037B617B78002BA8
:1020900006D07B697A691168BA680A431A6007E05A
:1020A0007B697A691168BA686FEA02020A401A60AD
:1020B00007F11C07BD4680BC704700BF80B485B0E7
:1020C00000AF78600B467B804FF00003FB737B68AA
:1020D0001B889AB27B8813409BB2002B03D04FF031
:1020E0000103FB7302E04FF00003FB73FB7B184618
:1020F00007F11407BD4680BC704700BF80B487B0AD
:1021000000AF78600B467B804FF00003FB604FF020
:1021100000037B614FF00003BB604FF00003FB74D2
:102120007B88DBB24FEA5313DBB2BB607B8803F0E2
:102130001F037B617B694FF0010202FA03F37B61AD
:10214000BB68012B06D17B689B899BB27A691340DF
:102150007B610FE0BB68022B06D17B681B8A9BB2B8
:102160007A6913407B6105E07B689B8A9BB27A6940
:1021700013407B617B884FEA13239BB2FB60FB68B3
:102180004FF0010202FA03F3FB607B681B889BB2ED
:10219000FA681340FB607B69002B06D0FB68002BBC
:1021A00003D04FF00103FB7402E04FF00003FB7417
:1021B000FB7C184607F11C07BD4680BC704700BF7A
:1021C00080B485B000AF78600B467B804FF0000391
:1021D000FB814FF00003BB817B884FEA1323FB8117
:1021E000FB894FF0010202FA03F3BB81BB896FEA5E
:1021F00003039AB27B681A8007F11407BD4680BCBE
:10220000704700BF80B58CB000AF4FF004004FF0B6
:102210000101FFF7AFF94FF00303BB624FF0030377
:1022200087F82C304FF0000387F82F3007F1280390
:102230004FF40060C4F202001946FEF72BFD4FF484
:1022400080704FF00101FFF7E9F94FF00003BB6127
:102250004FF44033FB614FF000033B624FF000034B
:102260007B6207F118031846FEF7F8F83B4618465C
:10227000FEF7CEF84FF000033B604FF000033B71D8
:102280004FF000037B714FF00003FB604FF0000341
:10229000BB604FF000033B614FF001033B753B46D1
:1022A0004FF40050C4F201001946FEF755F84FF400
:1022B0000050C4F201004FF00101FEF7FDF807F1F4
:1022C0003007BD4680BD00BF80B584B000AF034677
:1022D0003960FB714FF00003FB604FF00003BB60FF
:1022E0000BE0FB79184600F017F80346FA68D3189C
:1022F000FB60BB6803F10103BB60BA683B689A42AC
:10230000EFD3FA683B68B2FBF3F39BB2184607F1D0
:102310001007BD4680BD00BF80B584B000AF034646
:10232000FB714FF00003FB81FB794FF40050C4F2C6
:10233000010019464FF001024FF00003FEF7D8F8F4
:102340004FF40050C4F20100FEF7B0F900BF4FF4A3
:102350000050C4F201004FF00201FEF7C5F9034638
:10236000002BF4D04FF40050C4F20100FEF7AEF998
:102370000346FB81FB89184607F11007BD4680BD67
:1023800080B584B000AF40F29443C2F200034FF036
:1023900000021A7040F29443C2F200034FF00002B0
:1023A0005A804FF020004FF00101FFF70DF907F1BF
:1023B00004031846FFF726FC4FF00303BB6043F20B
:1023C0001443BB804FF00003BB814FF00003FB8040
:1023D00007F104034FF4A050C4F200001946FFF7C0
:1023E00097FB4FF037033B704FF00103FB704FF04A
:1023F0000F037B704FF00F03BB703B461846FDF791
:1024000039FF4FF4A050C4F200004FF001014FF02B
:102410000102FFF763FC4FF4A050C4F200004FF03C
:102420000101FFF73BFC07F11007BD4680BD00BF6F
:1024300080B582B000AF4FF4A050C4F200004FF05E
:102440000101FFF76FFC0346002B00F0A6804FF45C
:10245000A050C4F200004FF00101FFF793FC40F2DE
:102460006C13C2F200031B78002B0ED140F26D13E7
:10247000C2F200034FF000021A7040F26E13C2F273
:1024800000034FF000021A7087E040F26D13C2F2B1
:1024900000031B781A4640F21403C2F200039B5C4F
:1024A000FB7140F26E13C2F200031B78002B04D1C3
:1024B0004FF0000000F026FA23E040F26E13C2F263
:1024C00000031B78092B06D040F26E13C2F2000302
:1024D0001B780A2B04D14FF0010000F013FA10E032
:1024E000FA7940F26E13C2F200031B7803F1FF3356
:1024F00042FA03F3DBB203F00103DBB2184600F04B
:1025000001FA40F26E13C2F200031B7803F10103DB
:10251000DAB240F26E13C2F200031A7040F26E1388
:10252000C2F200031B780A2B37D940F26D13C2F2B6
:1025300000031B7803F10103DAB240F26D13C2F21B
:1025400000031A7040F26E13C2F200034FF0000253
:102550001A7040F26D13C2F200031A7840F21003B1
:10256000C2F200031B789A4217D940F26D13C2F2EF
:1025700000034FF000021A7040F26C13C2F2000325
:102580004FF000021A7000F0ABF94FF00000C4F2F7
:1025900002004FF00401FEF74BFC07F10807BD46AF
:1025A00080BD00BF80B584B000AF78604FF00003FD
:1025B000FB73786807F016FC0346BB734AF6C80342
:1025C000C0F600031A78BB7BD318DAB240F21003CE
:1025D000C2F200031A7040F21003C2F200031B782B
:1025E000C82B14D940F21003C2F200034FF0C80206
:1025F0001A700CE0FA7B40F21403C2F200034FF0B1
:1026000000019954FB7B03F10103FB7300E000BF61
:102610004AF6C803C0F600031B78FA7B9A42E9D356
:1026200013E0FA7BF97B4AF6C803C0F600031B7877
:10263000CB1A7968CB18197840F21403C2F2000360
:102640009954FB7B03F10103FB7340F21003C2F2C8
:1026500000031B78FA7B9A42E3D3FA7B40F214031F
:10266000C2F200034FF000019954FB7B03F1010318
:10267000FB73FA7B40F21403C2F200034FF0000137
:102680009954FB7B03F10103FB73FA7B40F21403C3
:10269000C2F200034FF000019954FB7B03F10103E8
:1026A000FB7300F0B9F840F26C13C2F200034FF074
:1026B00001021A704FF00000C4F202004FF0040152
:1026C000FEF7A8FB07F11007BD4680BD80B586B0B8
:1026D00000AF4FF001004FF00101FEF74BFF4FF04C
:1026E00010033B614FF003033B754FF00003FB7594
:1026F00007F110034FF00000C4F202001946FEF784
:10270000C9FA4FF010004FF00101FEF75DFF07F12D
:1027100004031846FFF776FA4FF00E03BB604FF044
:102720000003BB804FF00003BB814FF00003FB8030
:1027300007F104034FF48050C4F200001946FFF77C
:10274000E7F94FF48050C4F200004FF00101FFF7A9
:1027500085FA4FF48050C4F200004FF02001FFF7DB
:1027600023FB4FF48050C4F200004FF00101FFF74B
:1027700095FA4FF000504FF00101FEF725FF40F2AF
:102780009843C2F200034FF004021A6040F29843EB
:10279000C2F200034FF000025A6040F29843C2F2C6
:1027A00000034FF00002DA604FF0000040F2984161
:1027B000C2F20001FDF7B6FF4FF000004FF001013B
:1027C000FDF7EAFF4FF001004FF00101FEF7D2FEE6
:1027D0004FF004033B614FF001033B754FF00003E2
:1027E000BB754FF000037B754FF00003FB7507F1DD
:1027F00010034FF00000C4F202001946FEF74AFA37
:102800004FF00000C4F202004FF02001FEF710FB71
:1028100007F11807BD4680BD80B590B000AF4FF4FA
:1028200000104FF00101FEF7A5FE46F28800C4F249
:1028300002004FF00001FEF78DF946F28800C4F265
:102840000200FEF70DF84FF060637B6047F208432B
:10285000C4F20003BB604AF6E803C0F60003FB6065
:102860004FF040033B6140F2E2237B614FF00003F5
:10287000BB614FF48063FB614FF400633B624FF434
:1028800000537B624FF48073BB624FF40033FB62F2
:102890004FF000033B634FF001037B634FF00003F5
:1028A000BB634FF00003FB6307F1040346F28800AB
:1028B000C4F202001946FEF7F5F846F28800C4F2A9
:1028C00002004FF00101FEF745F94FF000004FF014
:1028D0000101FDF793FF07F14007BD4680BD00BF32
:1028E00080B500AF46F28800C4F202004FF000014C
:1028F000FEF730F94FF000004FF00001FDF77EFFCA
:1029000080BD00BF80B582B000AF0346FB71FB798C
:10291000002B08D04FF48050C4F200004FF00E019D
:10292000FFF78EF907E04FF48050C4F200004FF03B
:102930001001FFF785F907F10807BD4680BD00BF0C
:1029400080B400AFBD4680BC704700BF80B584B086
:1029500000AF0346FB714FF69D73FB81FB794FF48B
:10296000A840C4F2000019464FF0000205F054FFE1
:10297000B860BB68002B0BD0BB681B781A46BB68DD
:1029800003F101031B784FEA03239BB21343FB813E
:10299000FB891BB2184607F11007BD4680BD00BF7A
:1029A00080B400AF00BFBD4680BC70472DE9B04F7A
:1029B000AEB000AF786639664FF4A840C4F20000AC
:1029C0004FF0EE014FF0480206F026F94FF00003F9
:1029D0003B6703E03B6F03F101033B673A6F4FF640
:1029E000FE739A42F6DD4FF4A840C4F200004FF0A7
:1029F000EE014FF0000206F00FF94FF4A840C4F2C8
:102A000000004FF0EE0106F02DF8C7F89C004FF0E3
:102A10000003C7F8B430D7F89C30002B14D0D7F897
:102A20009C301B784FEA0342D7F89C3003F1010336
:102A30001B784FEA03231A43D7F89C3003F10203B3
:102A40001B781343C7F8B4304FF4A840C4F2000019
:102A50004FF0EE014FF0580206F0DEF84FF00003A1
:102A6000FB6603E0FB6E03F10103FB66FA6E4FF6B3
:102A7000FE739A42F6DD4FF4A840C4F200004FF016
:102A8000EE014FF0000206F0C7F84FF4A840C4F280
:102A900000004FF0EE0105F0E5FFC7F89C004FF095
:102AA0000003C7F8B030D7F89C30002B14D0D7F80B
:102AB0009C301B784FEA0342D7F89C3003F10103A6
:102AC0001B784FEA03231A43D7F89C3003F1020323
:102AD0001B781343C7F8B0304AF6CC03C0F60003A6
:102AE0005B691A4613464FEA03639B1A4FEA0323B6
:102AF0001A46D7F8B030D1180A464FEAE273C7E950
:102B000024234AF6CC03C0F600039B6918464FF015
:102B10000001D7F8903001FB03F2D7F8943000FBA6
:102B200003F3D218D7F89030A3FB004553191D4684
:102B30004FEAE5710A464FEAE2734FEA5320B86460
:102B40004FF00001F964D7E91223121943EB050392
:102B50004FEA43214FEAD25841EA08084FEAE359C5
:102B600042464B46134603F5FA63C7F88C304AF6E3
:102B7000CC03C0F6000399680A464FF000034FEA01
:102B8000D2314FEA434CC7F85CC0F86D0843F86592
:102B90004FEA4241B9654AF6CC03C0F600031B690F
:102BA00018464FEAE071D7F8903001FB03F2D7F8EE
:102BB000943000FB03F3D218D7F89030A3FB004504
:102BC00053191D464FEAE5710A464FEAE2734FEA90
:102BD000936CC7F840C04FF000007864D7E9102329
:102BE000121943EB05034FEA83614FEA921CC7F8C1
:102BF00038C0B86B0843B8634FEAA311F963D7E94B
:102C00000E23D7E91601121843EB0103C7E920236D
:102C10004AF6CC03C0F6000359680A464FF0000399
:102C20004FEA12414FEA034CC7F854C0786D08438D
:102C300078654FEA024139654AF6CC03C0F60003D5
:102C4000DB6818464FEAE071D7F8903001FB03F2D9
:102C5000D7F8943000FB03F3D218D7F89030A3FBD9
:102C6000004553191D464FEAE5710A464FEAE273E3
:102C70004FEA536CC7F830C04FF000007863D7E9D3
:102C80000C23121943EB05034FEA43614FEAD21CB0
:102C9000C7F828C0B86A0843B8624FEAE311F9627E
:102CA000D7E90A23D7E91401121843EB0103C7E956
:102CB0001E234FF000024FF00003C7E92A234FF014
:102CC0000003C7F8A4304FF00003C7F8A030D7F8CE
:102CD0008C2040F2CF739A4200F38C80D7F8942076
:102CE000D7F8903003FB02F1D7F89420D7F8903052
:102CF00003FB02F3CC18D7F89020D7F89030A2FB52
:102D00000301631819464FEAE17422464FEAE27361
:102D10004FEA530CC7F820C04FF000037B62D7E99D
:102D20000823121843EB01034FEA43014FEAD27A1A
:102D300041EA0A0A4FEAE37BDAF1000A6BEB4B0B3C
:102D4000C7E92AABD7F88C2013464FEA03139B1A26
:102D50004FEA83039B18A3F5EE33A3F19003D7F852
:102D60008C20A2F5FA6202FB03F303F10F02002BA1
:102D7000B8BF13464FEA2313C7F8A430D7F88C30F6
:102D8000A3F5FA63D7F88C20A2F5FA6202FB03F3ED
:102D90004FEA4303C7F8A030D7F88C204FF624231E
:102DA000CFF6FF739A4225DAD7F88C2013464FEA04
:102DB00003139B1A03F5AF4303F16403D7F88C2088
:102DC00002F2DC5202FB03F3D7F8A420D318C7F8B1
:102DD000A430D7F88C3003F2DC53D7F88C2002F201
:102DE000DC5202FB03F34FEAC303D7F8A020D31849
:102DF000C7F8A030D7F88C20D7F8A830D31AC7F876
:102E00008C30D7F8A4100A464FEAE273D7E92001C4
:102E1000821A61EB0303C7E92023D7F8A0100A4602
:102E20004FEAE273D7E91E01821A61EB0303C7E997
:102E30001E23D7F8B4100A464FF00003B96F03FB06
:102E400001F0F96F02FB01F14118B86FA0FB0223FA
:102E5000C9180B464FEAE37420464FEAE0714FEA87
:102E6000D12CC7F818C04FF00000F861D7E906016F
:102E7000121843EB01034FEAC3214FEA525CC7F833
:102E800010C03869084338614FEA63517961D7E966
:102E90000401D7E92023801A61EB03014FEAE174B2
:102EA00022464FEAE2734FEA534CC7F808C04FF08E
:102EB0000003FB60D7E90223121843EB01034FEA3A
:102EC00043414FEAD23CC7F800C038680843386035
:102ED0004FEAE3317960D7E9002313467B677A6FC5
:102EE00048F21F53C5F2EB1383FB02C34FEA631191
:102EF0004FEAE273CB1A7B677B6F9AB27B6E1A80C4
:102F0000D7F88C309AB23B6E1A8007F1B807BD46ED
:102F1000BDE8B08F80B483B000AF78607B68D3F831
:102F200000217B68D3F80431D31A184607F10C0747
:102F3000BD4680BC704700BF80B483B000AF7860EE
:102F40007B684FF00002C3F800217B684FF000025D
:102F5000C3F8042107F10C07BD4680BC704700BFD1
:102F600080B582B000AF786039607868FFF7D2FF33
:102F70000346002B02D14FF001030EE07B68D3F82B
:102F80000431DAB27968895C3A68117003F10102A0
:102F90007B68C3F804214FF00003184607F10807C7
:102FA000BD4680BD80B582B000AF78600B46FB7037
:102FB0007868FFF7AFFF0346FF2B0ED87B68D3F886
:102FC0000031DAB27968F878885403F101027B683D
:102FD000C3F800214FF0020301E04FF00003184650
:102FE00007F10807BD4680BD80B584B000AF034639
:102FF000FB71FB79012B22D0022B02D0002B0FD0CA
:103000002CE002F0C9FCB860BB68002B03D14FF084
:103010000003FB7302E04FF00103FB73FB7B1FE037
:1030200002F024FDB860BB68002B03D14FF0000311
:10303000FB7302E04FF00103FB73FB7B10E005F034
:103040005BF9B860BB68002B03D14FF00003FB7342
:1030500002E04FF00103FB73FB7B01E04FF0010343
:10306000184607F11007BD4680BD00BF80B584B08B
:1030700000AF0346FB71FB79012B22D0022B02D05B
:10308000002B0FD02CE002F095FCB860BB68002B41
:1030900003D14FF00003FB7302E04FF00303FB7317
:1030A000FB7B1FE002F000FDB860BB68002B03D182
:1030B0004FF00003FB7302E04FF00303FB73FB7B55
:1030C00010E005F027F9B860BB68002B03D14FF082
:1030D0000003FB7302E04FF00303FB73FB7B01E093
:1030E0004FF00103184607F11007BD4680BD00BF31
:1030F00080B586B000AFB9607A600246FA73BB73E0
:10310000FB7B012B2AD0022B02D0002B13D038E0FE
:10311000BB7BB86879681A4602F05AFC38613B6993
:10312000002B03D14FF00003FB7502E04FF00103C9
:10313000FB75FB7D27E0BB7BB86879681A4602F017
:10314000CDFC38613B69002B03D14FF00003FB75C8
:1031500002E04FF00103FB75FB7D14E0BB7BB86818
:1031600079681A4605F0E4F838613B69002B03D111
:103170004FF00003FB7502E04FF00103FB75FB7D90
:1031800001E04FF00403184607F11807BD4680BD63
:1031900080B586B000AFB9607A600246FA73BB733F
:1031A000FB7B012B2AD0022B02D0002B13D038E05E
:1031B000BB7BB86879681A4602F01CFC38613B6931
:1031C000002B03D14FF00003FB7502E04FF0010329
:1031D000FB75FB7D27E0BB7BB86879681A4602F077
:1031E000B3FC38613B69002B03D14FF00003FB7542
:1031F00002E04FF00103FB75FB7D14E0BB7BB86878
:1032000079681A4605F0A6F838613B69002B03D1AE
:103210004FF00003FB7502E04FF00103FB75FB7DEF
:1032200001E04FF00403184607F11807BD4680BDC2
:1032300080B400AF4BF2C033C3F249431846BD46D9
:1032400080BC704780B584B000AF0B463A60024640
:10325000FA71BB71FB79012B28D0022B02D0002B15
:1032600012D035E0BB791846396802F0D5FBB8605A
:10327000BB68002B03D14FF00003FB7302E04FF05B
:103280000103FB73FB7B25E0BB791846396802F02C
:1032900091FCB860BB68002B03D14FF00003FB73B7
:1032A00002E04FF00103FB73FB7B13E0BB79184690
:1032B000396805F061F8B860BB68002B03D14FF0A6
:1032C0000003FB7302E04FF00103FB73FB7B01E0A3
:1032D0004FF00403184607F11007BD4680BD00BF3C
:1032E00080B487B000AFF860B9607A60FB687B613A
:1032F000BB683B610BE03B691A787B691A707B699C
:1033000003F101037B613B6903F101033B617B68CE
:10331000002B0CBF00230123DBB27A6802F1FF32DD
:103320007A60002BE7D107F11C07BD4680BC7047CF
:1033300080B487B000AFF860B9607A60FB687B61E9
:1033400007E0BB68DAB27B691A707B6903F101039D
:103350007B617B68002B0CBF00230123DBB27A6802
:1033600002F1FF327A60002BEBD107F11C07BD465A
:1033700080BC704780B489B000AFF860B9607A60F3
:10338000FB68FB61BB68BB614FF000037B6100BF62
:103390007B68002B0CBF00230123DBB27A6802F1AB
:1033A000FF327A60002B16D0FB691B781A46BB6986
:1033B0001B78D31A7B617B69002B14BF0023012388
:1033C000DBB2FA6902F10102FA61BA6902F10102A3
:1033D000BA61002BDCD17B69184607F12407BD4692
:1033E00080BC704780B483B000AF7860396003E080
:1033F0007B6803F101037B607B681B78002B05D0A1
:103400007B681B781A463B689A42F1D17B681B782F
:10341000184607F10C07BD4680BC704780B584B0E4
:1034200000AF78607B681B79002B41D07B681B6BF9
:10343000FB607B685A787B6803F1340310461946B9
:10344000FA684FF00103FFF7A3FE0346002B02D0FA
:103450004FF001032EE07B684FF000021A717B6889
:103460005A6AFB689A4223D87B685A6A7B68DB6990
:10347000D218FB689A421BD97B68DB78BB6014E0EA
:103480007B68DB69FA68D318FB607B685A787B68D5
:1034900003F1340310461946FA684FF00103FFF7B1
:1034A00077FEBB6803F1FF33BB60BB68012BE7D835
:1034B0004FF00003184607F11007BD4680BD00BF5E
:1034C00080B582B000AF786039607B681A6B3B686A
:1034D0009A421DD07868FFF7A1FF0346002B02D067
:1034E0004FF0010316E07B685A787B6803F13403E0
:1034F000104619463A684FF00103FFF7F9FD0346FD
:10350000002B02D04FF0010304E07B683A681A6395
:103510004FF00003184607F10807BD4680BD00BF05
:1035200080B584B000AF78607868FFF777FF034616
:10353000FB73FB7B002B40F0AB807B681B78032B7D
:1035400040F097807B685B79002B00F092807B686D
:103550004FF000021A637B6803F1340318464FF002
:1035600000014FF40072FFF7E3FE7B684FF0550255
:1035700083F832227B684FF0AA0283F833227B68FB
:103580004FF0520283F834207B684FF0520283F8E8
:1035900035207B684FF0610283F836207B684FF05E
:1035A000410283F837207B684FF0720283F81822BB
:1035B0007B684FF0720283F819227B684FF041025A
:1035C00083F81A227B684FF0610283F81B227B6824
:1035D0001B69DAB27B6883F81C227B681B699BB28B
:1035E0004FEA13239BB2DAB27B6883F81D227B6813
:1035F0001B694FEA1343DAB27B6883F81E227B68AB
:103600001B694FEA1363DAB27B6883F81F227B6879
:10361000DB68DAB27B6883F820227B68DB689BB2C8
:103620004FEA13239BB2DAB27B6883F821227B68CE
:10363000DB684FEA1343DAB27B6883F822227B68A7
:10364000DB684FEA1363DAB27B6883F823227B6876
:1036500059787B6803F134027B685B690846114640
:103660001A464FF00103FFF793FD7B684FF000020D
:103670005A717B685B7818464FF000014FF00002EA
:10368000FFF7E0FD0346002B02D04FF00103FB7370
:10369000FB7B184607F11007BD4680BD80B483B0A0
:1036A00000AF786039603B68A3F102033B607B6840
:1036B0009B69A3F102023B689A4202D84FF00003D3
:1036C00007E07B689B783A6802FB03F27B68DB6A61
:1036D000D318184607F10C07BD4680BC704700BFE1
:1036E00080B586B000AF786039603B68012B04D9A3
:1036F0007B689A693B689A4202D84FF00103BCE0AC
:103700007B681B78022B52D0032B78D0012B40F022
:10371000B2803B687B617B694FEA53037A69D318B7
:103720007B617B685A6A7B694FEA5323D3187868B8
:103730001946FFF7C5FE0346002B40F095807B69D4
:103740004FEAC3534FEAD3537A68D31893F834300F
:103750003B617B6903F101037B617B685A6A7B698A
:103760004FEA5323D31878681946FFF7A9FE03469A
:10377000002B7BD17B694FEAC3534FEAD3537A685E
:10378000D31893F834304FEA03233A6913433B616B
:103790003B6803F00103002B03D03B694FEA13138E
:1037A00004E03B694FEA03534FEA135365E07B683B
:1037B0005A6A3B684FEA1323D31878681946FFF713
:1037C0007FFE0346002B53D13B684FEA43034FEA89
:1037D000C3534FEAD35303F130037A68D31803F18C
:1037E0000403FB60FB6803F101031B784FEA03232A
:1037F0009AB2FB681B7813439BB29BB23DE07B6897
:103800005A6A3B684FEAD313D31878681946FFF712
:1038100057FE0346002B2DD13B684FEA83034FEA46
:10382000C3534FEAD35303F130037A68D31803F13B
:103830000403FB60FB6803F103031B784FEA036298
:10384000FB6803F102031B784FEA03431A43FB684A
:1038500003F101031B784FEA03231A43FB681B782B
:10386000134323F0704308E000BF04E000BF02E010
:1038700000BF00E000BF4FF0FF33184607F1180704
:10388000BD4680BD80B588B000AFF860B9607A6091
:10389000BB68012B04D9FB689A69BB689A4203D8BC
:1038A0004FF00203FB771AE1FB681B78022B00F054
:1038B0008380032B00F0AC80012B40F00181BB68BA
:1038C000BB61BB694FEA5303BA69D318BB61FB689C
:1038D0005A6ABB694FEA5323D318F8681946FFF7B1
:1038E000EFFD0346FB77FB7F002B40F0ED80BB69CB
:1038F0004FEAC3534FEAD35303F13003FA68D318A6
:1039000003F104037B61BB6803F00103002B0ED0BD
:103910007B691B78DBB203F00F03DAB27B68DBB2A2
:103920004FEA0313DBB21343DBB2DBB201E07B6887
:10393000DBB27A691370BB6903F10103BB61FB68F9
:103940004FF001021A71FB685A6ABB694FEA5323B0
:10395000D318F8681946FFF7B3FD0346FB77FB7FE2
:10396000002B40F0B380BB694FEAC3534FEAD353F7
:1039700003F13003FA68D31803F104037B61BB68D9
:1039800003F00103002B04D07B684FEA1313DBB272
:103990000FE07B691B78DBB223F00F03DAB27B68A0
:1039A0004FEA1323DBB203F00F03DBB21343DBB2A6
:1039B000DBB27A6913708EE0FB685A6ABB684FEA23
:1039C0001323D318F8681946FFF77AFD0346FB77EF
:1039D000FB7F002B7CD1BB684FEA43034FEAC35304
:1039E0004FEAD35303F13003FA68D31803F1040309
:1039F0007B617B68DAB27B691A707B6903F1010332
:103A00007A6892B24FEA122292B2D2B21A7062E08F
:103A1000FB685A6ABB684FEAD313D318F868194693
:103A2000FFF74EFD0346FB77FB7F002B52D1BB68AF
:103A30004FEA83034FEAC3534FEAD35303F13003F2
:103A4000FA68D31803F104037B617B6903F1030374
:103A50001B784FEA03627B6903F102031B784FEA8C
:103A600003431A437B6903F101031B784FEA0323E5
:103A70001A437B691B78134303F070437A6813433E
:103A80007B607B68DAB27B691A707B6903F10103A2
:103A90007A6892B24FEA122292B2D2B21A707B695D
:103AA00003F102037A684FEA1242D2B21A707B69BC
:103AB00003F103037A684FEA1262D2B21A700AE085
:103AC0004FF00203FB7706E000BF04E000BF02E016
:103AD00000BF00E000BFFB684FF001021A71FB7FDE
:103AE000184607F12007BD4680BD00BF80B584B0F1
:103AF00000AF786039603B68012B04D97B689A6914
:103B00003B689A4203D84FF00203FB733FE04FF04B
:103B10000003FB7332E078683968FFF7E1FDB860B5
:103B2000BB68002B30D0BB68012B03D14FF00203E0
:103B3000FB732CE0BB68B3F1FF3F03D14FF00103EF
:103B4000FB7324E0786839684FF00002FFF79AFEB3
:103B50000346FB73FB7B002B18D17B681B69B3F119
:103B6000FF3F09D07B681B6903F101027B681A6182
:103B70007B684FF001025A71BB683B607B689A69B1
:103B80003B689A42C7D802E000BF00E000BFFB7B61
:103B9000184607F11007BD4680BD00BF80B586B04E
:103BA00000AF786039603B68002B0ED17B68DB6822
:103BB0003B613B69002B04D07B689A693B699A4260
:103BC00017D84FF001033B6113E078683968FFF7BD
:103BD00087FDB860BB68012B02D84FF001036DE090
:103BE0007B689A69BB689A4201D9BB6866E03B680A
:103BF0003B613B697B6100E000BF7B6903F101032E
:103C00007B617B689A697B699A4209D84FF002030D
:103C10007B617A693B699A4202D94FF000034DE01B
:103C200078687969FFF75CFDB860BB68002B0FD03E
:103C3000BB68B3F1FF3F02D0BB68012B01D1BB6869
:103C40003CE07A693B699A42D6D14FF0000335E0F7
:103C500000BF786879696FF07042FFF713FE034682
:103C6000FB73FB7B002B09D13B68002B06D07868E7
:103C700039687A69FFF706FE0346FB73FB7B002B6E
:103C800012D17B687A69DA607B681B69B3F1FF3F08
:103C900013D07B681B6903F1FF327B681A617B6874
:103CA0004FF001025A7108E0FB7B012B02D14FF06B
:103CB000FF3301E04FF001037B617B69184607F198
:103CC0001807BD4680BD00BF80B584B000AF7860E6
:103CD0000B467B807B687A88DA807B689B68FB6018
:103CE000FB68012B05D07B681B689A69FB689A42C8
:103CF00002D84FF002036FE0FB68002B08D17B680D
:103D00001B681B78032B03D17B681B689B6AFB60D5
:103D1000FB68002B16D17B68FA68DA607B681B6849
:103D20001B897A889A4202D34FF0020354E07B68E1
:103D30001B689A6A7B884FEA13139BB2D2187B6880
:103D40001A6139E07B681B689B784FEA03137B811B
:103D50001DE07B681B681846F968FFF7C1FCF86036
:103D6000FB68B3F1FF3F02D14FF0010334E0FB6881
:103D7000012B05D97B681B689A69FB689A4202D8B7
:103D80004FF0020328E07A887B89D31A7B807A88F7
:103D90007B899A42DDD27B68FA68DA607B681B68AF
:103DA0001846F968FFF77AFC02467B884FEA13133E
:103DB0009BB2D2187B681A617B681A687B8803F013
:103DC0000F034FEA431303F13003D31803F1040246
:103DD0007B685A614FF00003184607F11007BD4693
:103DE00080BD00BF90B585B000AF786039607B685A
:103DF000DB8803F101033B813B89002B03D07B6807
:103E00001B69002B02D14FF00403D1E03B8903F082
:103E10000F039BB2002B40F0B8807B681B6903F155
:103E200001027B681A617B68DB68002B09D17B6823
:103E30001B681B893A899A42C0F0A7804FF004039F
:103E4000B6E03B894FEA13139BB21A467B681B68A6
:103E50009B7803F1FF331340002B40F096807B6882
:103E60001A687B68DB6810461946FFF739FCF86072
:103E7000FB68012B02D84FF0020399E0FB68B3F115
:103E8000FF3F02D14FF0010392E07B681B689A6903
:103E9000FB689A426DD83B68002B02D14FF00403B7
:103EA00086E07B681A687B68DB6810461946FFF776
:103EB00075FEF860FB68002B02D14FF0070377E036
:103EC000FB68012B02D14FF0020371E0FB68B3F1F4
:103ED000FF3F02D14FF001036AE07B681B68184680
:103EE000FFF79CFA0346002B02D04FF001035FE07E
:103EF0007B681B6803F1340318464FF000014FF450
:103F00000072FFF715FA7B681C687B681B6818460F
:103F1000F968FFF7C3FB034623634FF00003FB720E
:103F200019E07B681B684FF001021A717B681B68FF
:103F30001846FFF773FA0346002B02D04FF0010337
:103F400036E07B681B681A6B02F101021A63FB7A88
:103F500003F10103FB727B681B689B78FA7A9A4233
:103F6000DFD37B681B687A681268116BFA7A8A1A49
:103F70001A637B68FA68DA607B681B681846F96820
:103F8000FFF78CFB02467B681A617B683A89DA800E
:103F90007B681A683B8903F00F034FEA431303F170
:103FA0003003D31803F104027B685A614FF0000319
:103FB000184607F11407BD4690BD00BF80B584B018
:103FC00000AF7860396078684FF00001FFF77CFE41
:103FD0000346FB73FB7B002B31D14FF00003BB602A
:103FE0007B681A687B681B6910461946FFF768FAF8
:103FF0000346FB73FB7B002B20D17B685B691B783E
:10400000E52B04D07B685B691B78002B08D1BB686B
:1040100003F10103BB60BA683B689A4203D10EE02A
:104020004FF00003BB6078684FF00101FFF7DAFE44
:104030000346FB73FB7B002BD2D000E000BFFB7B71
:10404000184607F11007BD4680BD00BF80B485B09B
:1040500000AF786039603B6803F11B031B784FEABF
:1040600003239AB23B6803F11A031B7813439BB2F4
:104070009BB2FB607B681B78032B12D13B6803F17A
:1040800015031B784FEA03239AB23B6803F114032C
:104090001B7813439BB29BB24FEA0343FA68134366
:1040A000FB60FB68184607F11407BD4680BC7047EB
:1040B00080B483B000AF786039607B6803F11A0385
:1040C0003A68D2B21A707B6803F11B033A6892B265
:1040D0004FEA122292B2D2B21A707B6803F1140333
:1040E0003A684FEA1242D2B21A707B6803F11503A4
:1040F0003A684FEA124292B24FEA122292B2D2B218
:104100001A7007F10C07BD4680BC704780B586B0B9
:1041100000AF786078684FF00001FFF7D5FD0346E7
:10412000FB75FB7D002B01D0FB7D3BE07B681A68B3
:104130007B681B6910461946FFF7C2F90346FB75F9
:10414000FB7D002B2AD17B685B693B613B691B7857
:10415000FB73FB7B002B03D14FF00403FB7520E0C6
:104160003B6903F10B031B7803F00803002B0AD112
:104170007B689B69386919464FF00B02FFF7FAF824
:104180000346002B0CD078684FF00001FFF72AFEA1
:104190000346FB75FB7D002BC8D002E000BF00E0AA
:1041A00000BFFB7D184607F11807BD4680BD00BF64
:1041B00080B584B000AF786078684FF00101FFF7F8
:1041C000FDFE0346FB73FB7B002B24D17B681A6842
:1041D0007B681B6910461946FFF772F90346FB73AB
:1041E000FB7B002B17D17B685B6918464FF0000101
:1041F0004FF02002FFF79CF87B685A697B689B6947
:10420000104619464FF00B02FFF76AF87B681B68EF
:104210004FF001021A71FB7B184607F11007BD46EB
:1042200080BD00BF80B588B000AF786039603B6862
:104230001B68FB6003E0FB6803F10103FB60FB68A4
:104240001B782F2BF7D0FB681B785C2BF3D07B6897
:104250009B69BB60B8684FF020014FF00B02FFF77D
:1042600067F84FF00003FB774FF000033B613B69B9
:104270007B614FF00803BB61FA687B69D3181B7838
:10428000BB777B6903F101037B61BB7F202B63D983
:10429000BB7F2F2B60D0BB7F5C2B5DD0BB7F2E2BD9
:1042A00003D03A69BB699A4214D3BB69082B02D187
:1042B000BB7F2E2B02D04FF0060389E04FF008039E
:1042C0003B614FF00B03BB61FB7F4FEA8303FB773E
:1042D00000BFD1E7BB7F5BB2002B0CDAFB7F43F062
:1042E0000303FB77BB7FA3F180024AF6AC63C0F601
:1042F00000039B5CBB77BB7F4AF62C70C0F60000C6
:104300001946FFF76FF80346002B02D04FF0060363
:104310005EE0BB7F402B07D9BB7F5A2B04D8FB7FC5
:1043200043F00203FB770DE0BB7F602B0AD9BB7F14
:104330007A2B07D8FB7F43F00103FB77BB7FA3F108
:104340002003BB77BA683B69D318BA7F1A703B6900
:1043500003F101033B618FE7FA687B69D2183B6880
:104360001A60BB7F202B02D84FF0040301E04FF00E
:104370000003BB773B69002B02D14FF0060327E017
:10438000BB681B78E52B03D1BB684FF005021A70A0
:10439000BB69082B03D1FB7F4FEA8303FB77FB7FCD
:1043A00003F00303012B03D1BB7F43F01003BB7762
:1043B000FB7F03F00C03042B03D1BB7F43F0080306
:1043C000BB77BB6803F10B03BA7F1A704FF0000391
:1043D000184607F12007BD4680BD00BF80B584B0F8
:1043E00000AF786039603B681B782F2B03D03B68A7
:1043F0001B785C2B03D13B6803F101033B607B68B6
:104400004FF000029A603B681B781F2B0BD878682E
:104410004FF00001FFF758FC0346FB737B684FF039
:1044200000025A6146E03B4678681946FFF7FAFEFB
:104430000346FB73FB7B002B35D17868FFF766FEE4
:104440000346FB737B689B69DB7ABB73FB7B002BAA
:104450000BD0FB7B042B28D1BB7B03F00403002B88
:1044600025D14FF00503FB7321E0BB7B03F0040370
:10447000002B1ED17B685B69BB60BB6803F10B033B
:104480001B7803F01003002B03D14FF00503FB73DF
:1044900010E07B681B681846B968FFF7D7FD024635
:1044A0007B689A60BFE700BF04E000BF02E000BF86
:1044B00000E000BFFB7B184607F11007BD4680BD3A
:1044C00080B582B000AF786039607B685A787B68CD
:1044D00003F13403104619463A684FF00103FEF722
:1044E00007FE0346002B02D04FF0030356E07B6823
:1044F00093F833324FEA03239AB27B6893F832324F
:1045000013439BB21AB24AF65523CFF6FF739A4271
:1045100002D04FF0020341E07B6893F86D304FEA20
:1045200003627B6893F86C304FEA03431A437B685D
:1045300093F86B304FEA03231A437B6893F86A3091
:10454000134323F07F4244F24613C0F254039A42CD
:1045500002D14FF0000321E07B6893F889304FEAE5
:1045600003627B6893F888304FEA03431A437B6801
:1045700093F887304FEA03231A437B6893F8863019
:10458000134323F07F4244F24613C0F254039A428D
:1045900002D14FF0000301E04FF00103184607F18C
:1045A0000807BD4680BD00BF80B592B000AFF8607F
:1045B000B9601346FB71FB681B68FB62FB6A1B78E2
:1045C000A3F130033B643B6C092B0DD8FB6A03F16C
:1045D00001031B783A2B07D1FB6A03F10203FB624C
:1045E000FB68FA6A1A6002E04FF000033B64BB68A4
:1045F0004FF000021A603B6C002B02D04FF00B030F
:10460000D2E240F27013C2F200033A6C53F8223047
:10461000BB62BB6A002B02D14FF00C03C4E2BB6843
:10462000BA6A1A60BB6A1B78002B1CD0BB6A5B7825
:104630001846FEF71BFD034687F8273097F827300A
:1046400003F00103002B0ED1FB79002B08D097F863
:10465000273003F00403002B02D04FF00A03A3E23B
:104660004FF00003A0E2BB6A4FF000021A703B6CEF
:10467000DAB2BB6A5A70BB6A5B781846FEF7B4FCC4
:10468000034687F8273097F8273003F00103002B03
:1046900002D04FF0030387E2FB79002B08D097F894
:1046A000273003F00403002B02D04FF00A037BE213
:1046B0004FF00003FB63B86AF96BFFF701FF034695
:1046C00087F8473097F84730012B41D14FF000036E
:1046D00087F8463097F84630002B05D097F84630DB
:1046E00003F1FF3387F8463097F846304FEA03135B
:1046F00003F5DF7303F13003BA6AD31803F104033F
:104700003B623B6A03F104031B78002B20D03B6A19
:1047100003F10B031B784FEA03623B6A03F10A03C0
:104720001B784FEA03431A433B6A03F109031B78E2
:104730004FEA03231A433B6A03F108031B78134330
:10474000FB63B86AF96BFFF7BBFE034687F8473097
:1047500097F84730032B02D14FF0010324E297F87A
:104760004730002B02D04FF00D031DE2BB6A93F8D7
:1047700040304FEA03239AB2BB6A93F83F301343A9
:104780009BB21BB2B3F5007F02D04FF00D030BE2DA
:10479000BB6A93F84B304FEA03239AB2BB6A93F893
:1047A0004A3013439BB29BB2BB63BB6B002B15D14A
:1047B000BB6A93F85B304FEA0362BB6A93F85A30E6
:1047C0004FEA03431A43BB6A93F859304FEA032375
:1047D0001A43BB6A93F858301343BB63BB6ABA6B86
:1047E000DA61BB6A93F84430FB77BB6AFA7FDA7010
:1047F000FB7F012B05D0FB7F022B02D04FF00D0376
:10480000D2E1FA7FBB6B02FB03F3BB63BB6A93F895
:104810004130FB77BB6AFA7F9A70FB7F002B06D092
:10482000FA7FFB7F03F1FF331340002B02D04FF0E0
:104830000D03B9E1BB6A93F846304FEA03239AB2FD
:10484000BB6A93F8453013439BB29AB2BB6A1A8194
:10485000BB6A1B8903F00F039BB2002B02D04FF001
:104860000D03A1E1BB6A93F848304FEA03239AB2E3
:10487000BB6A93F8473013439BB29BB27B637B6B5D
:10488000002B15D1BB6A93F857304FEA0362BB6A1D
:1048900093F856304FEA03431A43BB6A93F85530F6
:1048A0004FEA03231A43BB6A93F8543013437B63E4
:1048B000BB6A93F843304FEA03239AB2BB6A93F87A
:1048C000423013439BB2BB83BB8B002B02D14FF012
:1048D0000D0369E1BA8BBB6BD218BB6A1B894FEA27
:1048E00013139BB2D318BB617A6BBB699A4202D295
:1048F0004FF00D0358E17A6BBB69D21ABB6A9B7803
:10490000B2FBF3F37B617B69002B02D14FF00D0307
:104910004AE14FF0010387F847307A6940F6F573B2
:104920009A4203D94FF0020387F847307A694FF66D
:10493000F5739A4203D94FF0030387F847307B6938
:1049400003F10202BB6A9A61BB6AFA6B1A62BA8B04
:10495000FB6BD218BB6A5A62FA6BBB69D218BB6A8E
:10496000DA6297F84730032B23D1BB6A1B89002BEF
:1049700002D04FF00D0317E1BB6A93F863304FEAA2
:104980000362BB6A93F862304FEA03431A43BB6A7F
:1049900093F861304FEA03231A43BB6A93F86030FF
:1049A0001A43BB6A9A62BB6A9B694FEA83033B6303
:1049B00023E0BB6A1B89002B02D14FF00D03F3E00B
:1049C000BB6A5A6ABB6BD218BB6A9A6297F84730C7
:1049D000022B04D1BB6A9B694FEA43030CE0BB6A1C
:1049E0009A6913464FEA43039B184FEA5302BB6A86
:1049F0009B6903F00103D3183B63BB6ADA693B6B25
:104A000003F2FF134FEA53239A4202D24FF00D03F1
:104A1000CAE0BB6A4FF0FF321A61BB6A4FF0000276
:104A2000DA6097F84730032B40F09C80BB6A4FF068
:104A300000025A71BB6A93F865304FEA03239AB2B9
:104A4000BB6A93F8643013439BB29BB21A46FB6B6C
:104A5000D218BB6A5A61BB6A5978BB6A03F1340247
:104A6000BB6A5B69084611461A464FF00103FEF720
:104A70003FFB0346002B75D1BB6A93F833324FEAF4
:104A800003239AB2BB6A93F8323213439BB21AB231
:104A90004AF65523CFF6FF739A4263D1BB6A93F867
:104AA00037304FEA0362BB6A93F836304FEA03436C
:104AB0001A43BB6A93F835304FEA03231A43BB6AA3
:104AC00093F834301A4345F25223C4F261139A42E8
:104AD00048D1BB6A93F81B324FEA0362BB6A93F872
:104AE0001A324FEA03431A43BB6A93F819324FEA6A
:104AF00003231A43BB6A93F818321A4347F272230E
:104B0000C6F241139A422DD1BB6A93F823324FEA81
:104B10000362BB6A93F822324FEA03431A43BB6A2B
:104B200093F821324FEA03231A43BB6A93F82032E9
:104B30001A43BB6ADA60BB6A93F81F324FEA03621A
:104B4000BB6A93F81E324FEA03431A43BB6A93F8D9
:104B50001D324FEA03231A43BB6A93F81C321A43EF
:104B6000BB6A1A61BB6A97F847201A7040F2741347
:104B7000C2F200031B8803F101039AB240F27413DE
:104B8000C2F200031A8040F27413C2F200031A88C2
:104B9000BB6ADA80BB6A4FF000021A63BB6A4FF04F
:104BA00000021A714FF00003184607F14807BD468E
:104BB00080BD00BF80B584B000AF78607B68FB60CB
:104BC000FB68002B0FD0FB681B68002B0BD0FB6829
:104BD0001B681B78002B06D0FB681B68DA88FB6813
:104BE0009B889A4202D04FF009030FE0FB681B68D4
:104BF0005B781846FEF73AFA034603F00103002BF0
:104C000002D04FF0030301E04FF00003184607F114
:104C10001007BD4680BD00BF80B485B000AF03461D
:104C20003960FB71FB79002B02D04FF00B031FE0C2
:104C3000FA7940F27013C2F2000353F82230FB609D
:104C4000FB68002B03D0FB684FF000021A703B6832
:104C5000002B03D03B684FF000021A70FA7940F243
:104C60007013C2F20003396843F822104FF00003BA
:104C7000184607F11407BD4680BC704780B592B056
:104C800000AFF860B9601346FB71FB68002B02D1DE
:104C90004FF0090355E1FB684FF000021A60FB7901
:104CA00003F01F03FB71FB7923F00103DBB207F173
:104CB000080107F11C02084611461A46FFF774FC6A
:104CC000034687F8473097F84730002B40F037818C
:104CD00007F110037B63BB6807F11C0210461946FD
:104CE000FFF77CFB034687F847303B6B3B6497F844
:104CF0004730002B06D13B6C002B03D14FF006034D
:104D000087F84730FB7903F01C03002B00F0A880E4
:104D100097F84730002B12D097F84730042B07D173
:104D200007F11C031846FFF743FA034687F847309C
:104D3000FB7943F00803FB713B6B3B6415E03B6C74
:104D400003F10B031B7803F01103002B04D04FF089
:104D5000070387F8473008E0FB7903F00403002BD2
:104D600003D04FF0080387F8473097F84730002BFF
:104D700040F09880FB7903F00803002B00F092804C
:104D8000FEF756FAF8633B6C03F10E03FA6BD2B2EE
:104D90001A703B6C03F10F03FA6B92B24FEA1222C6
:104DA00092B2D2B21A703B6C03F11003FA6B4FEA65
:104DB0001242D2B21A703B6C03F11103FA6B4FEA44
:104DC0001262D2B21A703B6C03F10B034FF0000277
:104DD0001A703B6C03F11C034FF000021A703B6C1D
:104DE00003F11D034FF000021A703B6C03F11E0328
:104DF0004FF000021A703B6C03F11F034FF00002EA
:104E00001A70FB691846396CFFF720F9B863386CE3
:104E10004FF00001FFF74CF9FB694FF001021A71E6
:104E2000BB6B002B3ED0FB691B6BFB63FB69184619
:104E3000B96BFEF75BFE034687F8473097F84730BB
:104E4000002B2FD1FB69BA6B02F1FF32DA60FB69EC
:104E50001846F96BFEF734FB034687F8473021E02C
:104E600097F84730002B1DD13B6C03F10B031B78E7
:104E700003F01003002B04D04FF0040387F84730F1
:104E800010E0FB7903F00203002B0BD03B6C03F125
:104E90000B031B7803F00103002B03D04FF0070333
:104EA00087F8473097F84730002B0FD1FB7903F094
:104EB0000803002B03D0FB7943F02003FB71FB694F
:104EC0001A6BFB68DA61FB683A6C1A6297F8473034
:104ED000002B34D1FB68FA799A71FB691846396C5A
:104EE000FFF7B4F80246FB681A613B6C03F11F033D
:104EF0001B784FEA03623B6C03F11E031B784FEAF9
:104F000003431A433B6C03F11D031B784FEA032351
:104F10001A433B6C03F11C031B781A43FB68DA60ED
:104F2000FB684FF000029A60FB684FF000029A6144
:104F3000FA69FB681A60FB69DA88FB689A8097F85F
:104F40004730184607F14807BD4680BD80B58AB096
:104F500000AFF860B9607A603B60BB68BB613B68DA
:104F60004FF000021A60F868FFF724FE0346FB7555
:104F7000FB7D002B01D0FB7D88E1FB689B79DBB2D8
:104F80005BB2002B02DA4FF002037FE1FB689B79F2
:104F900003F00203002B02D14FF0070376E1FB6818
:104FA000DA687B68D218FB68DB689A4280F055812A
:104FB0004FF000037B6050E1FB689B684FEAC353EE
:104FC0004FEAD353002B40F00D81FB689B684FEAFA
:104FD0005323DAB2FB681B689B7803F1FF33DBB223
:104FE0001340BB75BB7D002B40D1FB689B68002B39
:104FF00011D1FB681B697B627B6A002B14D1FB68B3
:105000001B6818464FF00001FEF7C8FD7862FB6888
:105010007A6A1A6108E0FB681A68FB685B691046E7
:105020001946FEF7BBFD78627B6A002B00F01A81FF
:105030007B6A012B09D1FB689B7963F07F03DAB2AD
:10504000FB689A714FF0020320E17B6AB3F1FF3FE6
:1050500009D1FB689B7963F07F03DAB2FB689A7130
:105060004FF0010312E1FB687A6A5A61FB689B7991
:1050700003F04003002B22D0FB681B685978FB68C3
:1050800003F12402FB689B69084611461A464FF05B
:105090000103FEF77DF80346002B09D0FB689B79DE
:1050A00063F07F03DAB2FB689A714FF00103EDE021
:1050B000FB689B7923F04003DAB2FB689A71FB68C6
:1050C0001A68FB685B6910461946FEF7E7FA386113
:1050D0003B69002B09D1FB689B7963F07F03DAB24F
:1050E000FB689A714FF00203D0E0BB7D3A69D31898
:1050F0003B617B684FEA5323FB61FB69002B49D07E
:10510000BA7DFB69D218FB681B689B789A4206D966
:10511000FB681B689B781A46BB7DD31AFB61FB6852
:105120001B685A78FB69DBB21046B9693A69FEF729
:105130002FF80346002B09D0FB689B7963F07F03AF
:10514000DAB2FB689A714FF001039FE0FB689A693D
:105150003B69D21AFB699A4217D2FB6803F1240219
:10516000FB6899693B69CB1A4FEA4323B969CB18AD
:10517000104619464FF40072FEF7B2F8FB689B79AF
:1051800023F04003DAB2FB689A71FB694FEA4323CC
:105190003B624EE0FB689A693B699A421FD0FB680C
:1051A0009A68FB68DB689A4219D2FB681B685A78D8
:1051B000FB6803F12403104619463A694FF00103D6
:1051C000FDF796FF0346002B09D0FB689B7963F03F
:1051D0007F03DAB2FB689A714FF0010356E0FB6877
:1051E0003A699A61FB689B684FEAC3534FEAD3530D
:1051F000C3F500733B623A6A7B689A4201D97B68C7
:105200003B62FB689B684FEAC3534FEAD35303F1F9
:105210002003FA68D31803F104031846B9693A6AFF
:10522000FEF75EF8FB689B7943F04003DAB2FB6857
:105230009A71BA693B6AD318BB61FB689A683B6A8A
:10524000D218FB689A603B681A683B6AD2183B68C0
:105250001A607A683B6AD31A7B607B68002B7FF404
:10526000ABAE00E000BFFB689A68FB68DB689A425F
:1052700003D9FB689A68FB68DA60FB689B7943F0A6
:105280002003DAB2FB689A714FF00003184607F169
:105290002807BD4680BD00BF80B586B000AF7860EE
:1052A0007868FFF787FC0346FB75FB7D002B40F019
:1052B000B0807B689B7903F02003002B00F0A9806D
:1052C0007B689B7903F04003002B1BD07B681B6835
:1052D00059787B6803F124027B689B690846114674
:1052E0001A464FF00103FDF753FF0346002B02D08F
:1052F0004FF001038EE07B689B7923F04003DAB224
:105300007B689A717B681A687B68DB69104619466E
:10531000FEF7D6F80346FB75FB7D002B79D17B6841
:105320001B6A3B613B6903F10B033A6902F10B0213
:10533000127842F02002D2B21A703B6903F11C03CA
:105340007A68D268D2B21A703B6903F11D037A6899
:10535000D26892B24FEA122292B2D2B21A703B696C
:1053600003F11E037A68D2684FEA1242D2B21A7071
:105370003B6903F11F037A68D2684FEA1262D2B226
:105380001A707B681B6938691946FEF791FEFDF7B4
:105390004FFFF8603B6903F11603FA68D2B21A7046
:1053A0003B6903F11703FA6892B24FEA122292B2F4
:1053B000D2B21A703B6903F11803FA684FEA12423D
:1053C000D2B21A703B6903F11903FA684FEA12620C
:1053D000D2B21A703B6903F112034FF000021A7047
:1053E0003B6903F113034FF000021A707B689B794D
:1053F00023F02003DAB27B689A717B681B684FF058
:1054000001021A717B681B681846FEF789F803468B
:10541000FB75FB7D184607F11807BD4680BD00BF30
:1054200080B584B000AF78607868FFF735FF034639
:10543000FB73FB7B002B03D17B684FF000021A60EB
:10544000FB7B184607F11007BD4680BD80B588B0CC
:1054500000AF786039607868FFF7ACFB0346FB75F6
:10546000FB7D002B01D0FB7D57E17B689B79DBB294
:105470005BB2002B02DA4FF002034EE17B68DA6880
:105480003B689A4208D27B689B7903F00203002BA9
:1054900002D17B68DB683B607B689B683B614FF0B7
:1054A0000003BB617B68BA699A603B68002B00F01F
:1054B000CF807B681B689B784FEA4323FB603B6986
:1054C000002B1FD03B6803F1FF32FB68B2FBF3F205
:1054D0003B6903F1FF31FB68B1FBF3F39A4211D34F
:1054E0003B6903F1FF32FB68C3F100031A407B689C
:1054F0009A607B689B683A68D31A3B607B685B69FB
:10550000FB612EE07B681B69FB61FB69002B25D1E9
:105510007B681B6818464FF00001FEF73FFBF861FF
:10552000FB69012B09D17B689B7963F07F03DAB2B9
:105530007B689A714FF00203EFE0FB69B3F1FF3F24
:1055400009D17B689B7963F07F03DAB27B689A713B
:105550004FF00103E1E07B68FA691A617B68FA6940
:105560005A61FB69002B73D047E07B689B7903F09D
:105570000203002B0CD07B681B681846F969FEF704
:105580000DFBF861FB69002B09D1FB683B6038E03B
:105590007B681B681846F969FEF7A2F8F861FB6999
:1055A000B3F1FF3F09D17B689B7963F07F03DAB2E7
:1055B0007B689A714FF00103AFE0FB69012B05D9BD
:1055C0007B681B689A69FB699A4209D87B689B795A
:1055D00063F07F03DAB27B689A714FF002039CE0BC
:1055E0007B68FA695A617B689A68FB68D2187B68A5
:1055F0009A603A68FB68D31A3B603A68FB689A4243
:10560000B3D87B689A683B68D2187B689A603B681D
:105610004FEAC3534FEAD353002B19D07B681B6862
:105620001846F969FEF73AF8B861BB69002B09D151
:105630007B689B7963F07F03DAB27B689A714FF0E5
:1056400002036AE03B684FEA5323BA69D318BB618F
:105650007B689B684FEAC3534FEAD353002B4AD071
:105660007B689A69BB699A4245D07B689B7903F055
:105670004003002B22D07B681B6859787B6803F1BC
:1056800024027B689B69084611461A464FF00103C5
:10569000FDF77EFD0346002B09D07B689B7963F004
:1056A0007F03DAB27B689A714FF0010335E07B68C3
:1056B0009B7923F04003DAB27B689A717B681B68A0
:1056C0005A787B6803F1240310461946BA694FF0F3
:1056D0000103FDF70DFD0346002B09D07B689B7984
:1056E00063F07F03DAB27B689A714FF0010314E034
:1056F0007B68BA699A617B689A687B68DB689A42C2
:105700000AD97B689A687B68DA607B689B7943F08A
:105710002003DAB27B689A71FB7D184607F12007F7
:10572000BD4680BD80B58EB000AFF860B9607A60CC
:1057300007F10C03184679684FF00002FEF734FFBA
:10574000034687F837307B681B68FB6197F8373072
:10575000002B40F0C180FB691A69FB699B69A3F1CA
:1057600002039A4204D8FB691A69BB681A60B3E065
:10577000FB691B78FB764FF000033B63FB7E012B3C
:105780002AD14FF00203FB62F869F96AFDF7A8FF1E
:1057900078617B69B3F1FF3F04D14FF0010387F8D3
:1057A00037308CE07B69012B05D14FF0020387F87D
:1057B000373000BF83E07B69002B03D13B6B03F1E3
:1057C00001033B63FB6A03F10103FB62FB699B6915
:1057D000FA6A9A42D8D372E0FB699B69FB62FB6963
:1057E0005B6ABB624FF000037B624FF000033B62D9
:1057F0007B6A002B16D1BB6ABA6A02F10102BA6257
:10580000F8691946FDF75CFE034687F8373097F8CC
:105810003730002B52D1FB6903F134033B624FF464
:1058200000737B62FB7E022B19D13B6A03F10103FB
:105830001B784FEA03239AB23B6A1B7813439BB24F
:10584000002B03D13B6B03F101033B633B6A03F184
:1058500002033B627B6AA3F102037B6226E03B6AA0
:1058600003F103031B784FEA03623B6A03F102036F
:105870001B784FEA03431A433B6A03F101031B7889
:105880004FEA03231A433B6A1B78134323F0704308
:10589000002B03D13B6B03F101033B633B6A03F134
:1058A00004033B627B6AA3F104037B62FB6A03F19E
:1058B000FF33FB62FB6A002B9AD100E000BFFB695B
:1058C0003A6B1A61FB7E032B03D1FB694FF0010297
:1058D0005A71BB683A6B1A6097F83730184607F16F
:1058E0003807BD4680BD00BF80B586B000AF034617
:1058F0003960FB71FB790A2B04D14FF00D00396838
:10590000FFF7F2FFFB793B734FF001037B6107F177
:105910000C0207F11003386811467A69FFF716FB8D
:105920003A697B699A4202D14FF0010301E04FF0DE
:10593000FF33184607F11807BD4680BD80B584B017
:1059400000AF786039604FF00003FB6014E07B68C3
:105950001B7818463968FFF7C7FF0346B3F1FF3FCE
:1059600002D14FF0FF330CE07B6803F101037B6051
:10597000FB6803F10103FB607B681B78002BE6D119
:10598000FB68184607F11007BD4680BD80B400AF24
:10599000BD4680BC704700BF80B483B000AF4FF0FD
:1059A000FF337B607B68184607F10C07BD4680BC5F
:1059B000704700BF80B483B000AF4FF0FF337B600F
:1059C0007B68184607F10C07BD4680BC704700BFD6
:1059D00080B487B000AFF860B9601346FB714FF038
:1059E000FF337B617B69184607F11C07BD4680BC0D
:1059F000704700BF80B487B000AFF860B96013464D
:105A0000FB714FF0FF337B617B69184607F11C0780
:105A1000BD4680BC704700BF80B485B000AF034670
:105A20003960FB714FF0FF33FB60FB68184607F1EC
:105A30001407BD4680BC704780B500AF00F0FCF88D
:105A400002F0D2FA80BD00BF80B582B000AF4FF047
:105A50000003FB7100F0DAF90346FB71FB79DBB25E
:105A6000184607F10807BD4680BD00BF80B582B06B
:105A700000AF4FF0FF337B604FF00003FB7000F08E
:105A800003F90346FB70FB78002B03D14FF00003B2
:105A90007B6002E04FF0FF337B607B68184607F1C4
:105AA0000807BD4680BD00BF80B582B000AF4FF093
:105AB000FF337B6000F0AAF90346FB70FB78012BF3
:105AC00003D14FF000037B6002E04FF0FF337B60B7
:105AD0007B68184607F10807BD4680BD80B588B0D1
